{
    "_format": "hh-sol-artifact-1",
    "contractName": "ReputationMerkleTree",
    "sourceName": "contracts/ReputationMerkleTree.sol",
    "abi": [
        {
            "inputs": [],
            "stateMutability": "nonpayable",
            "type": "constructor"
        },
        {
            "anonymous": false,
            "inputs": [
                {
                    "indexed": false,
                    "internalType": "string",
                    "name": "cid",
                    "type": "string"
                }
            ],
            "name": "IPFSCIDUpdated",
            "type": "event"
        },
        {
            "anonymous": false,
            "inputs": [
                {
                    "indexed": false,
                    "internalType": "bool",
                    "name": "state",
                    "type": "bool"
                },
                {
                    "indexed": false,
                    "internalType": "address",
                    "name": "updater",
                    "type": "address"
                }
            ],
            "name": "LiveStateChanged",
            "type": "event"
        },
        {
            "anonymous": false,
            "inputs": [
                {
                    "indexed": true,
                    "internalType": "address",
                    "name": "updater",
                    "type": "address"
                },
                {
                    "indexed": false,
                    "internalType": "bytes32",
                    "name": "merkleRoot",
                    "type": "bytes32"
                },
                {
                    "indexed": false,
                    "internalType": "string",
                    "name": "cid",
                    "type": "string"
                },
                {
                    "indexed": false,
                    "internalType": "uint256",
                    "name": "epoch",
                    "type": "uint256"
                }
            ],
            "name": "MerkleRootUpdated",
            "type": "event"
        },
        {
            "anonymous": false,
            "inputs": [
                {
                    "indexed": false,
                    "internalType": "address",
                    "name": "newUpdater",
                    "type": "address"
                },
                {
                    "indexed": false,
                    "internalType": "address",
                    "name": "oldUpdater",
                    "type": "address"
                }
            ],
            "name": "MerkleUpdaterChanged",
            "type": "event"
        },
        {
            "inputs": [],
            "name": "admin",
            "outputs": [
                {
                    "internalType": "address",
                    "name": "",
                    "type": "address"
                }
            ],
            "stateMutability": "view",
            "type": "function"
        },
        {
            "inputs": [],
            "name": "currentEpoch",
            "outputs": [
                {
                    "internalType": "uint256",
                    "name": "",
                    "type": "uint256"
                }
            ],
            "stateMutability": "view",
            "type": "function"
        },
        {
            "inputs": [],
            "name": "getState",
            "outputs": [
                {
                    "internalType": "bool",
                    "name": "",
                    "type": "bool"
                }
            ],
            "stateMutability": "view",
            "type": "function"
        },
        {
            "inputs": [],
            "name": "live",
            "outputs": [
                {
                    "internalType": "bool",
                    "name": "",
                    "type": "bool"
                }
            ],
            "stateMutability": "view",
            "type": "function"
        },
        {
            "inputs": [],
            "name": "merkleUpdater",
            "outputs": [
                {
                    "internalType": "address",
                    "name": "",
                    "type": "address"
                }
            ],
            "stateMutability": "view",
            "type": "function"
        },
        {
            "inputs": [
                {
                    "internalType": "uint256",
                    "name": "",
                    "type": "uint256"
                }
            ],
            "name": "roots",
            "outputs": [
                {
                    "internalType": "bytes32",
                    "name": "merkleRoot",
                    "type": "bytes32"
                },
                {
                    "internalType": "string",
                    "name": "CID",
                    "type": "string"
                },
                {
                    "internalType": "uint256",
                    "name": "timestamp",
                    "type": "uint256"
                },
                {
                    "internalType": "uint256",
                    "name": "epoch",
                    "type": "uint256"
                }
            ],
            "stateMutability": "view",
            "type": "function"
        },
        {
            "inputs": [
                {
                    "internalType": "bool",
                    "name": "state",
                    "type": "bool"
                }
            ],
            "name": "setLiveState",
            "outputs": [],
            "stateMutability": "nonpayable",
            "type": "function"
        },
        {
            "inputs": [
                {
                    "internalType": "bytes32",
                    "name": "_newRoot",
                    "type": "bytes32"
                },
                {
                    "internalType": "string",
                    "name": "_cid",
                    "type": "string"
                }
            ],
            "name": "setMerkleRoot",
            "outputs": [],
            "stateMutability": "nonpayable",
            "type": "function"
        },
        {
            "inputs": [
                {
                    "internalType": "address",
                    "name": "_newMerkleUpdater",
                    "type": "address"
                }
            ],
            "name": "setMerkleUpdater",
            "outputs": [],
            "stateMutability": "nonpayable",
            "type": "function"
        },
        {
            "inputs": [
                {
                    "internalType": "address",
                    "name": "account",
                    "type": "address"
                },
                {
                    "internalType": "uint256",
                    "name": "index",
                    "type": "uint256"
                },
                {
                    "internalType": "uint256",
                    "name": "exp",
                    "type": "uint256"
                },
                {
                    "internalType": "bytes32[]",
                    "name": "proof",
                    "type": "bytes32[]"
                }
            ],
            "name": "verify",
            "outputs": [
                {
                    "internalType": "bool",
                    "name": "",
                    "type": "bool"
                }
            ],
            "stateMutability": "view",
            "type": "function"
        }
    ],
    "bytecode": "0x60a060405234801561001057600080fd5b5033600060016101000a81548173ffffffffffffffffffffffffffffffffffffffff021916908373ffffffffffffffffffffffffffffffffffffffff1602179055503373ffffffffffffffffffffffffffffffffffffffff1660808173ffffffffffffffffffffffffffffffffffffffff168152505060008060006101000a81548160ff02191690831515021790555060006001819055506080516116246100d860003960008181610208015281816103a2015281816106520152610a7d01526116246000f3fe608060405234801561001057600080fd5b506004361061009e5760003560e01c806380b383ca1161006657806380b383ca14610135578063957aa58c14610151578063c2b40ae41461016f578063e329e18b146101a2578063f851a440146101d25761009e565b80631865c57d146100a357806327264d0a146100c157806342330123146100dd5780635495c1ba146100f95780637667180814610117575b600080fd5b6100ab6101f0565b6040516100b89190610b5d565b60405180910390f35b6100db60048036038101906100d69190610bb8565b610206565b005b6100f760048036038101906100f29190610c43565b610349565b005b6101016105cd565b60405161010e9190610c7f565b60405180910390f35b61011f6105f3565b60405161012c9190610cb3565b60405180910390f35b61014f600480360381019061014a9190610e4a565b6105f9565b005b61015961080b565b6040516101669190610b5d565b60405180910390f35b61018960048036038101906101849190610ed2565b61081c565b6040516101999493929190610f96565b60405180910390f35b6101bc60048036038101906101b79190611042565b6108d4565b6040516101c99190610b5d565b60405180910390f35b6101da610a7b565b6040516101e79190610c7f565b60405180910390f35b60008060009054906101000a900460ff16905090565b7f000000000000000000000000000000000000000000000000000000000000000073ffffffffffffffffffffffffffffffffffffffff163373ffffffffffffffffffffffffffffffffffffffff1614610294576040517f08c379a000000000000000000000000000000000000000000000000000000000815260040161028b90611116565b60405180910390fd5b80151560008054906101000a900460ff161515036102e7576040517f08c379a00000000000000000000000000000000000000000000000000000000081526004016102de90611182565b60405180910390fd5b806000806101000a81548160ff0219169083151502179055507fc81fe7fdc2085fdbe836f3a552ed084dafcecf456706d6791f8bbb1bb87400f160008054906101000a900460ff163360405161033e9291906111a2565b60405180910390a150565b600060019054906101000a900473ffffffffffffffffffffffffffffffffffffffff1673ffffffffffffffffffffffffffffffffffffffff163373ffffffffffffffffffffffffffffffffffffffff1614806103f057507f000000000000000000000000000000000000000000000000000000000000000073ffffffffffffffffffffffffffffffffffffffff163373ffffffffffffffffffffffffffffffffffffffff16145b61042f576040517f08c379a000000000000000000000000000000000000000000000000000000000815260040161042690611116565b60405180910390fd5b600060019054906101000a900473ffffffffffffffffffffffffffffffffffffffff1673ffffffffffffffffffffffffffffffffffffffff168173ffffffffffffffffffffffffffffffffffffffff16036104bf576040517f08c379a00000000000000000000000000000000000000000000000000000000081526004016104b690611217565b60405180910390fd5b600073ffffffffffffffffffffffffffffffffffffffff168173ffffffffffffffffffffffffffffffffffffffff160361052e576040517f08c379a000000000000000000000000000000000000000000000000000000000815260040161052590611283565b60405180910390fd5b80600060016101000a81548173ffffffffffffffffffffffffffffffffffffffff021916908373ffffffffffffffffffffffffffffffffffffffff1602179055507fdc90ef7a58fa8bddfaca013af8d0cbc3a1d0b7e5cbf47cf4eb9766a0c544cd95600060019054906101000a900473ffffffffffffffffffffffffffffffffffffffff16336040516105c29291906112a3565b60405180910390a150565b600060019054906101000a900473ffffffffffffffffffffffffffffffffffffffff1681565b60015481565b600060019054906101000a900473ffffffffffffffffffffffffffffffffffffffff1673ffffffffffffffffffffffffffffffffffffffff163373ffffffffffffffffffffffffffffffffffffffff1614806106a057507f000000000000000000000000000000000000000000000000000000000000000073ffffffffffffffffffffffffffffffffffffffff163373ffffffffffffffffffffffffffffffffffffffff16145b6106df576040517f08c379a00000000000000000000000000000000000000000000000000000000081526004016106d690611116565b60405180910390fd5b6000801b8203610724576040517f08c379a000000000000000000000000000000000000000000000000000000000815260040161071b90611318565b60405180910390fd5b60018060008282546107369190611367565b92505081905550604051806080016040528083815260200182815260200142815260200160015481525060026000600154815260200190815260200160002060008201518160000155602082015181600101908051906020019061079b929190610a9f565b5060408201518160020155606082015181600301559050503373ffffffffffffffffffffffffffffffffffffffff167faef157f060b8b2d952feac543500ed14b6b119e1f26711eb4fc2b4857b77c01c83836001546040516107ff939291906113bd565b60405180910390a25050565b60008054906101000a900460ff1681565b60026020528060005260406000206000915090508060000154908060010180546108459061142a565b80601f01602080910402602001604051908101604052809291908181526020018280546108719061142a565b80156108be5780601f10610893576101008083540402835291602001916108be565b820191906000526020600020905b8154815290600101906020018083116108a157829003601f168201915b5050505050908060020154908060030154905084565b60008073ffffffffffffffffffffffffffffffffffffffff168673ffffffffffffffffffffffffffffffffffffffff1603610944576040517f08c379a000000000000000000000000000000000000000000000000000000000815260040161093b906114a7565b60405180910390fd5b60006002600060015481526020019081526020016000206000015490506000868887604051602001610978939291906114c7565b604051602081830303815290604052805190602001209050600087905060005b868690508161ffff161015610a69576001808316036109fe5786868261ffff168181106109c8576109c76114fe565b5b90506020020135836040516020016109e192919061152d565b604051602081830303815290604052805190602001209250610a47565b8287878361ffff16818110610a1657610a156114fe565b5b90506020020135604051602001610a2e92919061152d565b6040516020818303038152906040528051906020012092505b600282610a549190611585565b91508080610a61906115c4565b915050610998565b50828214935050505095945050505050565b7f000000000000000000000000000000000000000000000000000000000000000081565b828054610aab9061142a565b90600052602060002090601f016020900481019282610acd5760008555610b14565b82601f10610ae657805160ff1916838001178555610b14565b82800160010185558215610b14579182015b82811115610b13578251825591602001919060010190610af8565b5b509050610b219190610b25565b5090565b5b80821115610b3e576000816000905550600101610b26565b5090565b60008115159050919050565b610b5781610b42565b82525050565b6000602082019050610b726000830184610b4e565b92915050565b6000604051905090565b600080fd5b600080fd5b610b9581610b42565b8114610ba057600080fd5b50565b600081359050610bb281610b8c565b92915050565b600060208284031215610bce57610bcd610b82565b5b6000610bdc84828501610ba3565b91505092915050565b600073ffffffffffffffffffffffffffffffffffffffff82169050919050565b6000610c1082610be5565b9050919050565b610c2081610c05565b8114610c2b57600080fd5b50565b600081359050610c3d81610c17565b92915050565b600060208284031215610c5957610c58610b82565b5b6000610c6784828501610c2e565b91505092915050565b610c7981610c05565b82525050565b6000602082019050610c946000830184610c70565b92915050565b6000819050919050565b610cad81610c9a565b82525050565b6000602082019050610cc86000830184610ca4565b92915050565b6000819050919050565b610ce181610cce565b8114610cec57600080fd5b50565b600081359050610cfe81610cd8565b92915050565b600080fd5b600080fd5b6000601f19601f8301169050919050565b7f4e487b7100000000000000000000000000000000000000000000000000000000600052604160045260246000fd5b610d5782610d0e565b810181811067ffffffffffffffff82111715610d7657610d75610d1f565b5b80604052505050565b6000610d89610b78565b9050610d958282610d4e565b919050565b600067ffffffffffffffff821115610db557610db4610d1f565b5b610dbe82610d0e565b9050602081019050919050565b82818337600083830152505050565b6000610ded610de884610d9a565b610d7f565b905082815260208101848484011115610e0957610e08610d09565b5b610e14848285610dcb565b509392505050565b600082601f830112610e3157610e30610d04565b5b8135610e41848260208601610dda565b91505092915050565b60008060408385031215610e6157610e60610b82565b5b6000610e6f85828601610cef565b925050602083013567ffffffffffffffff811115610e9057610e8f610b87565b5b610e9c85828601610e1c565b9150509250929050565b610eaf81610c9a565b8114610eba57600080fd5b50565b600081359050610ecc81610ea6565b92915050565b600060208284031215610ee857610ee7610b82565b5b6000610ef684828501610ebd565b91505092915050565b610f0881610cce565b82525050565b600081519050919050565b600082825260208201905092915050565b60005b83811015610f48578082015181840152602081019050610f2d565b83811115610f57576000848401525b50505050565b6000610f6882610f0e565b610f728185610f19565b9350610f82818560208601610f2a565b610f8b81610d0e565b840191505092915050565b6000608082019050610fab6000830187610eff565b8181036020830152610fbd8186610f5d565b9050610fcc6040830185610ca4565b610fd96060830184610ca4565b95945050505050565b600080fd5b600080fd5b60008083601f84011261100257611001610d04565b5b8235905067ffffffffffffffff81111561101f5761101e610fe2565b5b60208301915083602082028301111561103b5761103a610fe7565b5b9250929050565b60008060008060006080868803121561105e5761105d610b82565b5b600061106c88828901610c2e565b955050602061107d88828901610ebd565b945050604061108e88828901610ebd565b935050606086013567ffffffffffffffff8111156110af576110ae610b87565b5b6110bb88828901610fec565b92509250509295509295909350565b7f43414c4c4552204e4f5420415554484f52495a45440000000000000000000000600082015250565b6000611100601583610f19565b915061110b826110ca565b602082019050919050565b6000602082019050818103600083015261112f816110f3565b9050919050565b7f6e6577537461746520213d206f6c645374617465000000000000000000000000600082015250565b600061116c601483610f19565b915061117782611136565b602082019050919050565b6000602082019050818103600083015261119b8161115f565b9050919050565b60006040820190506111b76000830185610b4e565b6111c46020830184610c70565b9392505050565b7f6e65775570646174657220213d206f6c64557064617465720000000000000000600082015250565b6000611201601883610f19565b915061120c826111cb565b602082019050919050565b60006020820190508181036000830152611230816111f4565b9050919050565b7f555044415445522043414e4e4f5420424520454d505459000000000000000000600082015250565b600061126d601783610f19565b915061127882611237565b602082019050919050565b6000602082019050818103600083015261129c81611260565b9050919050565b60006040820190506112b86000830185610c70565b6112c56020830184610c70565b9392505050565b7f524f4f5420495320454d50545900000000000000000000000000000000000000600082015250565b6000611302600d83610f19565b915061130d826112cc565b602082019050919050565b60006020820190508181036000830152611331816112f5565b9050919050565b7f4e487b7100000000000000000000000000000000000000000000000000000000600052601160045260246000fd5b600061137282610c9a565b915061137d83610c9a565b9250827fffffffffffffffffffffffffffffffffffffffffffffffffffffffffffffffff038211156113b2576113b1611338565b5b828201905092915050565b60006060820190506113d26000830186610eff565b81810360208301526113e48185610f5d565b90506113f36040830184610ca4565b949350505050565b7f4e487b7100000000000000000000000000000000000000000000000000000000600052602260045260246000fd5b6000600282049050600182168061144257607f821691505b602082108103611455576114546113fb565b5b50919050565b7f4143434f554e542043414e4e4f5420424520454d505459000000000000000000600082015250565b6000611491601783610f19565b915061149c8261145b565b602082019050919050565b600060208201905081810360008301526114c081611484565b9050919050565b60006060820190506114dc6000830186610ca4565b6114e96020830185610c70565b6114f66040830184610ca4565b949350505050565b7f4e487b7100000000000000000000000000000000000000000000000000000000600052603260045260246000fd5b60006040820190506115426000830185610eff565b61154f6020830184610eff565b9392505050565b7f4e487b7100000000000000000000000000000000000000000000000000000000600052601260045260246000fd5b600061159082610c9a565b915061159b83610c9a565b9250826115ab576115aa611556565b5b828204905092915050565b600061ffff82169050919050565b60006115cf826115b6565b915061ffff82036115e3576115e2611338565b5b60018201905091905056fea26469706673582212209b9bbb02fb6f1b1a6b83d84bdaf3d61ae7f9594c8ca9c02d403101c9ea15ccde64736f6c634300080d0033",
    "linkReferences": {},
    "deployedLinkReferences": {}
}